{
  "_format": "hh-sol-artifact-1",
  "contractName": "EventChain",
  "sourceName": "contracts/EventChain.sol",
  "abi": [
    {
      "inputs": [],
      "stateMutability": "nonpayable",
      "type": "constructor"
    },
    {
      "anonymous": false,
      "inputs": [
        {
          "indexed": true,
          "internalType": "address",
          "name": "owner",
          "type": "address"
        },
        {
          "indexed": true,
          "internalType": "address",
          "name": "approved",
          "type": "address"
        },
        {
          "indexed": true,
          "internalType": "uint256",
          "name": "tokenId",
          "type": "uint256"
        }
      ],
      "name": "Approval",
      "type": "event"
    },
    {
      "anonymous": false,
      "inputs": [
        {
          "indexed": true,
          "internalType": "address",
          "name": "owner",
          "type": "address"
        },
        {
          "indexed": true,
          "internalType": "address",
          "name": "operator",
          "type": "address"
        },
        {
          "indexed": false,
          "internalType": "bool",
          "name": "approved",
          "type": "bool"
        }
      ],
      "name": "ApprovalForAll",
      "type": "event"
    },
    {
      "anonymous": false,
      "inputs": [
        {
          "indexed": true,
          "internalType": "address",
          "name": "previousOwner",
          "type": "address"
        },
        {
          "indexed": true,
          "internalType": "address",
          "name": "newOwner",
          "type": "address"
        }
      ],
      "name": "OwnershipTransferred",
      "type": "event"
    },
    {
      "anonymous": false,
      "inputs": [
        {
          "indexed": true,
          "internalType": "address",
          "name": "from",
          "type": "address"
        },
        {
          "indexed": true,
          "internalType": "address",
          "name": "to",
          "type": "address"
        },
        {
          "indexed": true,
          "internalType": "uint256",
          "name": "tokenId",
          "type": "uint256"
        }
      ],
      "name": "Transfer",
      "type": "event"
    },
    {
      "inputs": [
        {
          "internalType": "address",
          "name": "to",
          "type": "address"
        },
        {
          "internalType": "uint256",
          "name": "tokenId",
          "type": "uint256"
        }
      ],
      "name": "approve",
      "outputs": [],
      "stateMutability": "nonpayable",
      "type": "function"
    },
    {
      "inputs": [
        {
          "internalType": "address",
          "name": "owner",
          "type": "address"
        }
      ],
      "name": "balanceOf",
      "outputs": [
        {
          "internalType": "uint256",
          "name": "",
          "type": "uint256"
        }
      ],
      "stateMutability": "view",
      "type": "function"
    },
    {
      "inputs": [
        {
          "internalType": "uint256",
          "name": "tokenId",
          "type": "uint256"
        }
      ],
      "name": "getApproved",
      "outputs": [
        {
          "internalType": "address",
          "name": "",
          "type": "address"
        }
      ],
      "stateMutability": "view",
      "type": "function"
    },
    {
      "inputs": [
        {
          "internalType": "uint256",
          "name": "tokenId",
          "type": "uint256"
        }
      ],
      "name": "getTicket",
      "outputs": [
        {
          "components": [
            {
              "internalType": "uint256",
              "name": "tokenId",
              "type": "uint256"
            },
            {
              "internalType": "string",
              "name": "metadataURI",
              "type": "string"
            },
            {
              "internalType": "bool",
              "name": "isVIP",
              "type": "bool"
            }
          ],
          "internalType": "struct EventChain.Ticket",
          "name": "",
          "type": "tuple"
        }
      ],
      "stateMutability": "view",
      "type": "function"
    },
    {
      "inputs": [
        {
          "internalType": "address",
          "name": "owner",
          "type": "address"
        },
        {
          "internalType": "address",
          "name": "operator",
          "type": "address"
        }
      ],
      "name": "isApprovedForAll",
      "outputs": [
        {
          "internalType": "bool",
          "name": "",
          "type": "bool"
        }
      ],
      "stateMutability": "view",
      "type": "function"
    },
    {
      "inputs": [
        {
          "internalType": "address",
          "name": "attendee",
          "type": "address"
        },
        {
          "internalType": "string",
          "name": "metadataURI",
          "type": "string"
        }
      ],
      "name": "mintTicket",
      "outputs": [],
      "stateMutability": "nonpayable",
      "type": "function"
    },
    {
      "inputs": [],
      "name": "name",
      "outputs": [
        {
          "internalType": "string",
          "name": "",
          "type": "string"
        }
      ],
      "stateMutability": "view",
      "type": "function"
    },
    {
      "inputs": [],
      "name": "owner",
      "outputs": [
        {
          "internalType": "address",
          "name": "",
          "type": "address"
        }
      ],
      "stateMutability": "view",
      "type": "function"
    },
    {
      "inputs": [
        {
          "internalType": "uint256",
          "name": "tokenId",
          "type": "uint256"
        }
      ],
      "name": "ownerOf",
      "outputs": [
        {
          "internalType": "address",
          "name": "",
          "type": "address"
        }
      ],
      "stateMutability": "view",
      "type": "function"
    },
    {
      "inputs": [],
      "name": "renounceOwnership",
      "outputs": [],
      "stateMutability": "nonpayable",
      "type": "function"
    },
    {
      "inputs": [
        {
          "internalType": "address",
          "name": "from",
          "type": "address"
        },
        {
          "internalType": "address",
          "name": "to",
          "type": "address"
        },
        {
          "internalType": "uint256",
          "name": "tokenId",
          "type": "uint256"
        }
      ],
      "name": "safeTransferFrom",
      "outputs": [],
      "stateMutability": "nonpayable",
      "type": "function"
    },
    {
      "inputs": [
        {
          "internalType": "address",
          "name": "from",
          "type": "address"
        },
        {
          "internalType": "address",
          "name": "to",
          "type": "address"
        },
        {
          "internalType": "uint256",
          "name": "tokenId",
          "type": "uint256"
        },
        {
          "internalType": "bytes",
          "name": "data",
          "type": "bytes"
        }
      ],
      "name": "safeTransferFrom",
      "outputs": [],
      "stateMutability": "nonpayable",
      "type": "function"
    },
    {
      "inputs": [
        {
          "internalType": "address",
          "name": "operator",
          "type": "address"
        },
        {
          "internalType": "bool",
          "name": "approved",
          "type": "bool"
        }
      ],
      "name": "setApprovalForAll",
      "outputs": [],
      "stateMutability": "nonpayable",
      "type": "function"
    },
    {
      "inputs": [
        {
          "internalType": "bytes4",
          "name": "interfaceId",
          "type": "bytes4"
        }
      ],
      "name": "supportsInterface",
      "outputs": [
        {
          "internalType": "bool",
          "name": "",
          "type": "bool"
        }
      ],
      "stateMutability": "view",
      "type": "function"
    },
    {
      "inputs": [],
      "name": "symbol",
      "outputs": [
        {
          "internalType": "string",
          "name": "",
          "type": "string"
        }
      ],
      "stateMutability": "view",
      "type": "function"
    },
    {
      "inputs": [
        {
          "internalType": "uint256",
          "name": "",
          "type": "uint256"
        }
      ],
      "name": "tickets",
      "outputs": [
        {
          "internalType": "uint256",
          "name": "tokenId",
          "type": "uint256"
        },
        {
          "internalType": "string",
          "name": "metadataURI",
          "type": "string"
        },
        {
          "internalType": "bool",
          "name": "isVIP",
          "type": "bool"
        }
      ],
      "stateMutability": "view",
      "type": "function"
    },
    {
      "inputs": [
        {
          "internalType": "uint256",
          "name": "tokenId",
          "type": "uint256"
        }
      ],
      "name": "tokenURI",
      "outputs": [
        {
          "internalType": "string",
          "name": "",
          "type": "string"
        }
      ],
      "stateMutability": "view",
      "type": "function"
    },
    {
      "inputs": [
        {
          "internalType": "address",
          "name": "from",
          "type": "address"
        },
        {
          "internalType": "address",
          "name": "to",
          "type": "address"
        },
        {
          "internalType": "uint256",
          "name": "tokenId",
          "type": "uint256"
        }
      ],
      "name": "transferFrom",
      "outputs": [],
      "stateMutability": "nonpayable",
      "type": "function"
    },
    {
      "inputs": [
        {
          "internalType": "address",
          "name": "newOwner",
          "type": "address"
        }
      ],
      "name": "transferOwnership",
      "outputs": [],
      "stateMutability": "nonpayable",
      "type": "function"
    }
  ],
  "bytecode": "0x60806040523480156200001157600080fd5b506040518060400160405280600a81526020017f4576656e74436861696e000000000000000000000000000000000000000000008152506040518060400160405280600381526020017f4556540000000000000000000000000000000000000000000000000000000000815250816000908051906020019062000096929190620001a6565b508060019080519060200190620000af929190620001a6565b505050620000d2620000c6620000d860201b60201c565b620000e060201b60201c565b620002bb565b600033905090565b6000600660009054906101000a900473ffffffffffffffffffffffffffffffffffffffff16905081600660006101000a81548173ffffffffffffffffffffffffffffffffffffffff021916908373ffffffffffffffffffffffffffffffffffffffff1602179055508173ffffffffffffffffffffffffffffffffffffffff168173ffffffffffffffffffffffffffffffffffffffff167f8be0079c531659141344cd1fd0a4f28419497f9722a3daafe3b4186f6b6457e060405160405180910390a35050565b828054620001b49062000256565b90600052602060002090601f016020900481019282620001d8576000855562000224565b82601f10620001f357805160ff191683800117855562000224565b8280016001018555821562000224579182015b828111156200022357825182559160200191906001019062000206565b5b50905062000233919062000237565b5090565b5b808211156200025257600081600090555060010162000238565b5090565b600060028204905060018216806200026f57607f821691505b602082108114156200028657620002856200028c565b5b50919050565b7f4e487b7100000000000000000000000000000000000000000000000000000000600052602260045260246000fd5b612ec380620002cb6000396000f3fe608060405234801561001057600080fd5b50600436106101215760003560e01c806370a08231116100ad578063a22cb46511610071578063a22cb4651461031c578063b88d4fde14610338578063c87b56dd14610354578063e985e9c514610384578063f2fde38b146103b457610121565b806370a0823114610276578063715018a6146102a65780637dc379fa146102b05780638da5cb5b146102e057806395d89b41146102fe57610121565b806323b872dd116100f457806323b872dd146101c057806342842e0e146101dc57806350b44712146101f85780635388842c1461022a5780636352211e1461024657610121565b806301ffc9a71461012657806306fdde0314610156578063081812fc14610174578063095ea7b3146101a4575b600080fd5b610140600480360381019061013b919061218d565b6103d0565b60405161014d91906125d1565b60405180910390f35b61015e6104b2565b60405161016b91906125ec565b60405180910390f35b61018e600480360381019061018991906121df565b610544565b60405161019b919061256a565b60405180910390f35b6101be60048036038101906101b99190612151565b61058a565b005b6101da60048036038101906101d59190611ff7565b6106a2565b005b6101f660048036038101906101f19190611ff7565b610702565b005b610212600480360381019061020d91906121df565b610722565b604051610221939291906127eb565b60405180910390f35b610244600480360381019061023f91906120fd565b6107e1565b005b610260600480360381019061025b91906121df565b61089e565b60405161026d919061256a565b60405180910390f35b610290600480360381019061028b9190611f92565b610925565b60405161029d91906127d0565b60405180910390f35b6102ae6109dd565b005b6102ca60048036038101906102c591906121df565b6109f1565b6040516102d791906127ae565b60405180910390f35b6102e8610ad5565b6040516102f5919061256a565b60405180910390f35b610306610aff565b60405161031391906125ec565b60405180910390f35b610336600480360381019061033191906120c1565b610b91565b005b610352600480360381019061034d9190612046565b610ba7565b005b61036e600480360381019061036991906121df565b610c09565b60405161037b91906125ec565b60405180910390f35b61039e60048036038101906103999190611fbb565b610c71565b6040516103ab91906125d1565b60405180910390f35b6103ce60048036038101906103c99190611f92565b610d05565b005b60007f80ac58cd000000000000000000000000000000000000000000000000000000007bffffffffffffffffffffffffffffffffffffffffffffffffffffffff1916827bffffffffffffffffffffffffffffffffffffffffffffffffffffffff1916148061049b57507f5b5e139f000000000000000000000000000000000000000000000000000000007bffffffffffffffffffffffffffffffffffffffffffffffffffffffff1916827bffffffffffffffffffffffffffffffffffffffffffffffffffffffff1916145b806104ab57506104aa82610d89565b5b9050919050565b6060600080546104c1906129ba565b80601f01602080910402602001604051908101604052809291908181526020018280546104ed906129ba565b801561053a5780601f1061050f5761010080835404028352916020019161053a565b820191906000526020600020905b81548152906001019060200180831161051d57829003601f168201915b5050505050905090565b600061054f82610df3565b6004600083815260200190815260200160002060009054906101000a900473ffffffffffffffffffffffffffffffffffffffff169050919050565b60006105958261089e565b90508073ffffffffffffffffffffffffffffffffffffffff168373ffffffffffffffffffffffffffffffffffffffff161415610606576040517f08c379a00000000000000000000000000000000000000000000000000000000081526004016105fd9061276e565b60405180910390fd5b8073ffffffffffffffffffffffffffffffffffffffff16610625610e3e565b73ffffffffffffffffffffffffffffffffffffffff16148061065457506106538161064e610e3e565b610c71565b5b610693576040517f08c379a000000000000000000000000000000000000000000000000000000000815260040161068a9061278e565b60405180910390fd5b61069d8383610e46565b505050565b6106b36106ad610e3e565b82610eff565b6106f2576040517f08c379a00000000000000000000000000000000000000000000000000000000081526004016106e99061260e565b60405180910390fd5b6106fd838383610f94565b505050565b61071d83838360405180602001604052806000815250610ba7565b505050565b600860205280600052604060002060009150905080600001549080600101805461074b906129ba565b80601f0160208091040260200160405190810160405280929190818152602001828054610777906129ba565b80156107c45780601f10610799576101008083540402835291602001916107c4565b820191906000526020600020905b8154815290600101906020018083116107a757829003601f168201915b5050505050908060020160009054906101000a900460ff16905083565b6107e961128e565b6107f3600761130c565b60006107ff6007611322565b90506000806014836108119190612a1d565b14905060405180606001604052808381526020018481526020018215158152506008600084815260200190815260200160002060008201518160000155602082015181600101908051906020019061086a929190611d93565b5060408201518160020160006101000a81548160ff0219169083151502179055509050506108988483611330565b50505050565b6000806108aa8361154e565b9050600073ffffffffffffffffffffffffffffffffffffffff168173ffffffffffffffffffffffffffffffffffffffff16141561091c576040517f08c379a00000000000000000000000000000000000000000000000000000000081526004016109139061274e565b60405180910390fd5b80915050919050565b60008073ffffffffffffffffffffffffffffffffffffffff168273ffffffffffffffffffffffffffffffffffffffff161415610996576040517f08c379a000000000000000000000000000000000000000000000000000000000815260040161098d906126ee565b60405180910390fd5b600360008373ffffffffffffffffffffffffffffffffffffffff1673ffffffffffffffffffffffffffffffffffffffff168152602001908152602001600020549050919050565b6109e561128e565b6109ef600061158b565b565b6109f9611e19565b6008600083815260200190815260200160002060405180606001604052908160008201548152602001600182018054610a31906129ba565b80601f0160208091040260200160405190810160405280929190818152602001828054610a5d906129ba565b8015610aaa5780601f10610a7f57610100808354040283529160200191610aaa565b820191906000526020600020905b815481529060010190602001808311610a8d57829003601f168201915b505050505081526020016002820160009054906101000a900460ff1615151515815250509050919050565b6000600660009054906101000a900473ffffffffffffffffffffffffffffffffffffffff16905090565b606060018054610b0e906129ba565b80601f0160208091040260200160405190810160405280929190818152602001828054610b3a906129ba565b8015610b875780601f10610b5c57610100808354040283529160200191610b87565b820191906000526020600020905b815481529060010190602001808311610b6a57829003601f168201915b5050505050905090565b610ba3610b9c610e3e565b8383611651565b5050565b610bb8610bb2610e3e565b83610eff565b610bf7576040517f08c379a0000000000000000000000000000000000000000000000000000000008152600401610bee9061260e565b60405180910390fd5b610c03848484846117be565b50505050565b6060610c1482610df3565b6000610c1e61181a565b90506000815111610c3e5760405180602001604052806000815250610c69565b80610c4884611831565b604051602001610c59929190612546565b6040516020818303038152906040525b915050919050565b6000600560008473ffffffffffffffffffffffffffffffffffffffff1673ffffffffffffffffffffffffffffffffffffffff16815260200190815260200160002060008373ffffffffffffffffffffffffffffffffffffffff1673ffffffffffffffffffffffffffffffffffffffff16815260200190815260200160002060009054906101000a900460ff16905092915050565b610d0d61128e565b600073ffffffffffffffffffffffffffffffffffffffff168173ffffffffffffffffffffffffffffffffffffffff161415610d7d576040517f08c379a0000000000000000000000000000000000000000000000000000000008152600401610d749061264e565b60405180910390fd5b610d868161158b565b50565b60007f01ffc9a7000000000000000000000000000000000000000000000000000000007bffffffffffffffffffffffffffffffffffffffffffffffffffffffff1916827bffffffffffffffffffffffffffffffffffffffffffffffffffffffff1916149050919050565b610dfc81611955565b610e3b576040517f08c379a0000000000000000000000000000000000000000000000000000000008152600401610e329061274e565b60405180910390fd5b50565b600033905090565b816004600083815260200190815260200160002060006101000a81548173ffffffffffffffffffffffffffffffffffffffff021916908373ffffffffffffffffffffffffffffffffffffffff160217905550808273ffffffffffffffffffffffffffffffffffffffff16610eb98361089e565b73ffffffffffffffffffffffffffffffffffffffff167f8c5be1e5ebec7d5bd14f71427d1e84f3dd0314c0f7b2291e5b200ac8c7c3b92560405160405180910390a45050565b600080610f0b8361089e565b90508073ffffffffffffffffffffffffffffffffffffffff168473ffffffffffffffffffffffffffffffffffffffff161480610f4d5750610f4c8185610c71565b5b80610f8b57508373ffffffffffffffffffffffffffffffffffffffff16610f7384610544565b73ffffffffffffffffffffffffffffffffffffffff16145b91505092915050565b8273ffffffffffffffffffffffffffffffffffffffff16610fb48261089e565b73ffffffffffffffffffffffffffffffffffffffff161461100a576040517f08c379a00000000000000000000000000000000000000000000000000000000081526004016110019061266e565b60405180910390fd5b600073ffffffffffffffffffffffffffffffffffffffff168273ffffffffffffffffffffffffffffffffffffffff16141561107a576040517f08c379a0000000000000000000000000000000000000000000000000000000008152600401611071906126ae565b60405180910390fd5b6110878383836001611996565b8273ffffffffffffffffffffffffffffffffffffffff166110a78261089e565b73ffffffffffffffffffffffffffffffffffffffff16146110fd576040517f08c379a00000000000000000000000000000000000000000000000000000000081526004016110f49061266e565b60405180910390fd5b6004600082815260200190815260200160002060006101000a81549073ffffffffffffffffffffffffffffffffffffffff02191690556001600360008573ffffffffffffffffffffffffffffffffffffffff1673ffffffffffffffffffffffffffffffffffffffff168152602001908152602001600020600082825403925050819055506001600360008473ffffffffffffffffffffffffffffffffffffffff1673ffffffffffffffffffffffffffffffffffffffff16815260200190815260200160002060008282540192505081905550816002600083815260200190815260200160002060006101000a81548173ffffffffffffffffffffffffffffffffffffffff021916908373ffffffffffffffffffffffffffffffffffffffff160217905550808273ffffffffffffffffffffffffffffffffffffffff168473ffffffffffffffffffffffffffffffffffffffff167fddf252ad1be2c89b69c2b068fc378daa952ba7f163c4a11628f55a4df523b3ef60405160405180910390a4611289838383600161199c565b505050565b611296610e3e565b73ffffffffffffffffffffffffffffffffffffffff166112b4610ad5565b73ffffffffffffffffffffffffffffffffffffffff161461130a576040517f08c379a00000000000000000000000000000000000000000000000000000000081526004016113019061272e565b60405180910390fd5b565b6001816000016000828254019250508190555050565b600081600001549050919050565b600073ffffffffffffffffffffffffffffffffffffffff168273ffffffffffffffffffffffffffffffffffffffff1614156113a0576040517f08c379a00000000000000000000000000000000000000000000000000000000081526004016113979061270e565b60405180910390fd5b6113a981611955565b156113e9576040517f08c379a00000000000000000000000000000000000000000000000000000000081526004016113e09061268e565b60405180910390fd5b6113f7600083836001611996565b61140081611955565b15611440576040517f08c379a00000000000000000000000000000000000000000000000000000000081526004016114379061268e565b60405180910390fd5b6001600360008473ffffffffffffffffffffffffffffffffffffffff1673ffffffffffffffffffffffffffffffffffffffff16815260200190815260200160002060008282540192505081905550816002600083815260200190815260200160002060006101000a81548173ffffffffffffffffffffffffffffffffffffffff021916908373ffffffffffffffffffffffffffffffffffffffff160217905550808273ffffffffffffffffffffffffffffffffffffffff16600073ffffffffffffffffffffffffffffffffffffffff167fddf252ad1be2c89b69c2b068fc378daa952ba7f163c4a11628f55a4df523b3ef60405160405180910390a461154a60008383600161199c565b5050565b60006002600083815260200190815260200160002060009054906101000a900473ffffffffffffffffffffffffffffffffffffffff169050919050565b6000600660009054906101000a900473ffffffffffffffffffffffffffffffffffffffff16905081600660006101000a81548173ffffffffffffffffffffffffffffffffffffffff021916908373ffffffffffffffffffffffffffffffffffffffff1602179055508173ffffffffffffffffffffffffffffffffffffffff168173ffffffffffffffffffffffffffffffffffffffff167f8be0079c531659141344cd1fd0a4f28419497f9722a3daafe3b4186f6b6457e060405160405180910390a35050565b8173ffffffffffffffffffffffffffffffffffffffff168373ffffffffffffffffffffffffffffffffffffffff1614156116c0576040517f08c379a00000000000000000000000000000000000000000000000000000000081526004016116b7906126ce565b60405180910390fd5b80600560008573ffffffffffffffffffffffffffffffffffffffff1673ffffffffffffffffffffffffffffffffffffffff16815260200190815260200160002060008473ffffffffffffffffffffffffffffffffffffffff1673ffffffffffffffffffffffffffffffffffffffff16815260200190815260200160002060006101000a81548160ff0219169083151502179055508173ffffffffffffffffffffffffffffffffffffffff168373ffffffffffffffffffffffffffffffffffffffff167f17307eab39ab6107e8899845ad3d59bd9653f200f220920489ca2b5937696c31836040516117b191906125d1565b60405180910390a3505050565b6117c9848484610f94565b6117d5848484846119a2565b611814576040517f08c379a000000000000000000000000000000000000000000000000000000000815260040161180b9061262e565b60405180910390fd5b50505050565b606060405180602001604052806000815250905090565b60606000600161184084611b39565b01905060008167ffffffffffffffff811115611885577f4e487b7100000000000000000000000000000000000000000000000000000000600052604160045260246000fd5b6040519080825280601f01601f1916602001820160405280156118b75781602001600182028036833780820191505090505b509050600082602001820190505b60011561194a578080600190039150507f3031323334353637383961626364656600000000000000000000000000000000600a86061a8153600a8581611934577f4e487b7100000000000000000000000000000000000000000000000000000000600052601260045260246000fd5b04945060008514156119455761194a565b6118c5565b819350505050919050565b60008073ffffffffffffffffffffffffffffffffffffffff166119778361154e565b73ffffffffffffffffffffffffffffffffffffffff1614159050919050565b50505050565b50505050565b60006119c38473ffffffffffffffffffffffffffffffffffffffff16611d70565b15611b2c578373ffffffffffffffffffffffffffffffffffffffff1663150b7a026119ec610e3e565b8786866040518563ffffffff1660e01b8152600401611a0e9493929190612585565b602060405180830381600087803b158015611a2857600080fd5b505af1925050508015611a5957506040513d601f19601f82011682018060405250810190611a5691906121b6565b60015b611adc573d8060008114611a89576040519150601f19603f3d011682016040523d82523d6000602084013e611a8e565b606091505b50600081511415611ad4576040517f08c379a0000000000000000000000000000000000000000000000000000000008152600401611acb9061262e565b60405180910390fd5b805181602001fd5b63150b7a0260e01b7bffffffffffffffffffffffffffffffffffffffffffffffffffffffff1916817bffffffffffffffffffffffffffffffffffffffffffffffffffffffff191614915050611b31565b600190505b949350505050565b600080600090507a184f03e93ff9f4daa797ed6e38ed64bf6a1f0100000000000000008310611bbd577a184f03e93ff9f4daa797ed6e38ed64bf6a1f0100000000000000008381611bb3577f4e487b7100000000000000000000000000000000000000000000000000000000600052601260045260246000fd5b0492506040810190505b6d04ee2d6d415b85acef81000000008310611c20576d04ee2d6d415b85acef81000000008381611c16577f4e487b7100000000000000000000000000000000000000000000000000000000600052601260045260246000fd5b0492506020810190505b662386f26fc100008310611c7557662386f26fc100008381611c6b577f4e487b7100000000000000000000000000000000000000000000000000000000600052601260045260246000fd5b0492506010810190505b6305f5e1008310611cc4576305f5e1008381611cba577f4e487b7100000000000000000000000000000000000000000000000000000000600052601260045260246000fd5b0492506008810190505b6127108310611d0f576127108381611d05577f4e487b7100000000000000000000000000000000000000000000000000000000600052601260045260246000fd5b0492506004810190505b60648310611d585760648381611d4e577f4e487b7100000000000000000000000000000000000000000000000000000000600052601260045260246000fd5b0492506002810190505b600a8310611d67576001810190505b80915050919050565b6000808273ffffffffffffffffffffffffffffffffffffffff163b119050919050565b828054611d9f906129ba565b90600052602060002090601f016020900481019282611dc15760008555611e08565b82601f10611dda57805160ff1916838001178555611e08565b82800160010185558215611e08579182015b82811115611e07578251825591602001919060010190611dec565b5b509050611e159190611e3c565b5090565b604051806060016040528060008152602001606081526020016000151581525090565b5b80821115611e55576000816000905550600101611e3d565b5090565b6000611e6c611e678461284e565b612829565b905082815260208101848484011115611e8457600080fd5b611e8f848285612978565b509392505050565b6000611eaa611ea58461287f565b612829565b905082815260208101848484011115611ec257600080fd5b611ecd848285612978565b509392505050565b600081359050611ee481612e31565b92915050565b600081359050611ef981612e48565b92915050565b600081359050611f0e81612e5f565b92915050565b600081519050611f2381612e5f565b92915050565b600082601f830112611f3a57600080fd5b8135611f4a848260208601611e59565b91505092915050565b600082601f830112611f6457600080fd5b8135611f74848260208601611e97565b91505092915050565b600081359050611f8c81612e76565b92915050565b600060208284031215611fa457600080fd5b6000611fb284828501611ed5565b91505092915050565b60008060408385031215611fce57600080fd5b6000611fdc85828601611ed5565b9250506020611fed85828601611ed5565b9150509250929050565b60008060006060848603121561200c57600080fd5b600061201a86828701611ed5565b935050602061202b86828701611ed5565b925050604061203c86828701611f7d565b9150509250925092565b6000806000806080858703121561205c57600080fd5b600061206a87828801611ed5565b945050602061207b87828801611ed5565b935050604061208c87828801611f7d565b925050606085013567ffffffffffffffff8111156120a957600080fd5b6120b587828801611f29565b91505092959194509250565b600080604083850312156120d457600080fd5b60006120e285828601611ed5565b92505060206120f385828601611eea565b9150509250929050565b6000806040838503121561211057600080fd5b600061211e85828601611ed5565b925050602083013567ffffffffffffffff81111561213b57600080fd5b61214785828601611f53565b9150509250929050565b6000806040838503121561216457600080fd5b600061217285828601611ed5565b925050602061218385828601611f7d565b9150509250929050565b60006020828403121561219f57600080fd5b60006121ad84828501611eff565b91505092915050565b6000602082840312156121c857600080fd5b60006121d684828501611f14565b91505092915050565b6000602082840312156121f157600080fd5b60006121ff84828501611f7d565b91505092915050565b61221181612904565b82525050565b61222081612916565b82525050565b61222f81612916565b82525050565b6000612240826128b0565b61224a81856128c6565b935061225a818560208601612987565b61226381612adb565b840191505092915050565b6000612279826128bb565b61228381856128d7565b9350612293818560208601612987565b61229c81612adb565b840191505092915050565b60006122b2826128bb565b6122bc81856128e8565b93506122cc818560208601612987565b6122d581612adb565b840191505092915050565b60006122eb826128bb565b6122f581856128f9565b9350612305818560208601612987565b80840191505092915050565b600061231e602d836128e8565b915061232982612aec565b604082019050919050565b60006123416032836128e8565b915061234c82612b3b565b604082019050919050565b60006123646026836128e8565b915061236f82612b8a565b604082019050919050565b60006123876025836128e8565b915061239282612bd9565b604082019050919050565b60006123aa601c836128e8565b91506123b582612c28565b602082019050919050565b60006123cd6024836128e8565b91506123d882612c51565b604082019050919050565b60006123f06019836128e8565b91506123fb82612ca0565b602082019050919050565b60006124136029836128e8565b915061241e82612cc9565b604082019050919050565b60006124366020836128e8565b915061244182612d18565b602082019050919050565b60006124596020836128e8565b915061246482612d41565b602082019050919050565b600061247c6018836128e8565b915061248782612d6a565b602082019050919050565b600061249f6021836128e8565b91506124aa82612d93565b604082019050919050565b60006124c2603d836128e8565b91506124cd82612de2565b604082019050919050565b60006060830160008301516124f06000860182612528565b5060208301518482036020860152612508828261226e565b915050604083015161251d6040860182612217565b508091505092915050565b6125318161296e565b82525050565b6125408161296e565b82525050565b600061255282856122e0565b915061255e82846122e0565b91508190509392505050565b600060208201905061257f6000830184612208565b92915050565b600060808201905061259a6000830187612208565b6125a76020830186612208565b6125b46040830185612537565b81810360608301526125c68184612235565b905095945050505050565b60006020820190506125e66000830184612226565b92915050565b6000602082019050818103600083015261260681846122a7565b905092915050565b6000602082019050818103600083015261262781612311565b9050919050565b6000602082019050818103600083015261264781612334565b9050919050565b6000602082019050818103600083015261266781612357565b9050919050565b600060208201905081810360008301526126878161237a565b9050919050565b600060208201905081810360008301526126a78161239d565b9050919050565b600060208201905081810360008301526126c7816123c0565b9050919050565b600060208201905081810360008301526126e7816123e3565b9050919050565b6000602082019050818103600083015261270781612406565b9050919050565b6000602082019050818103600083015261272781612429565b9050919050565b600060208201905081810360008301526127478161244c565b9050919050565b600060208201905081810360008301526127678161246f565b9050919050565b6000602082019050818103600083015261278781612492565b9050919050565b600060208201905081810360008301526127a7816124b5565b9050919050565b600060208201905081810360008301526127c881846124d8565b905092915050565b60006020820190506127e56000830184612537565b92915050565b60006060820190506128006000830186612537565b818103602083015261281281856122a7565b90506128216040830184612226565b949350505050565b6000612833612844565b905061283f82826129ec565b919050565b6000604051905090565b600067ffffffffffffffff82111561286957612868612aac565b5b61287282612adb565b9050602081019050919050565b600067ffffffffffffffff82111561289a57612899612aac565b5b6128a382612adb565b9050602081019050919050565b600081519050919050565b600081519050919050565b600082825260208201905092915050565b600082825260208201905092915050565b600082825260208201905092915050565b600081905092915050565b600061290f8261294e565b9050919050565b60008115159050919050565b60007fffffffff0000000000000000000000000000000000000000000000000000000082169050919050565b600073ffffffffffffffffffffffffffffffffffffffff82169050919050565b6000819050919050565b82818337600083830152505050565b60005b838110156129a557808201518184015260208101905061298a565b838111156129b4576000848401525b50505050565b600060028204905060018216806129d257607f821691505b602082108114156129e6576129e5612a7d565b5b50919050565b6129f582612adb565b810181811067ffffffffffffffff82111715612a1457612a13612aac565b5b80604052505050565b6000612a288261296e565b9150612a338361296e565b925082612a4357612a42612a4e565b5b828206905092915050565b7f4e487b7100000000000000000000000000000000000000000000000000000000600052601260045260246000fd5b7f4e487b7100000000000000000000000000000000000000000000000000000000600052602260045260246000fd5b7f4e487b7100000000000000000000000000000000000000000000000000000000600052604160045260246000fd5b6000601f19601f8301169050919050565b7f4552433732313a2063616c6c6572206973206e6f7420746f6b656e206f776e6560008201527f72206f7220617070726f76656400000000000000000000000000000000000000602082015250565b7f4552433732313a207472616e7366657220746f206e6f6e20455243373231526560008201527f63656976657220696d706c656d656e7465720000000000000000000000000000602082015250565b7f4f776e61626c653a206e6577206f776e657220697320746865207a65726f206160008201527f6464726573730000000000000000000000000000000000000000000000000000602082015250565b7f4552433732313a207472616e736665722066726f6d20696e636f72726563742060008201527f6f776e6572000000000000000000000000000000000000000000000000000000602082015250565b7f4552433732313a20746f6b656e20616c7265616479206d696e74656400000000600082015250565b7f4552433732313a207472616e7366657220746f20746865207a65726f2061646460008201527f7265737300000000000000000000000000000000000000000000000000000000602082015250565b7f4552433732313a20617070726f766520746f2063616c6c657200000000000000600082015250565b7f4552433732313a2061646472657373207a65726f206973206e6f74206120766160008201527f6c6964206f776e65720000000000000000000000000000000000000000000000602082015250565b7f4552433732313a206d696e7420746f20746865207a65726f2061646472657373600082015250565b7f4f776e61626c653a2063616c6c6572206973206e6f7420746865206f776e6572600082015250565b7f4552433732313a20696e76616c696420746f6b656e2049440000000000000000600082015250565b7f4552433732313a20617070726f76616c20746f2063757272656e74206f776e6560008201527f7200000000000000000000000000000000000000000000000000000000000000602082015250565b7f4552433732313a20617070726f76652063616c6c6572206973206e6f7420746f60008201527f6b656e206f776e6572206f7220617070726f76656420666f7220616c6c000000602082015250565b612e3a81612904565b8114612e4557600080fd5b50565b612e5181612916565b8114612e5c57600080fd5b50565b612e6881612922565b8114612e7357600080fd5b50565b612e7f8161296e565b8114612e8a57600080fd5b5056fea2646970667358221220729586b184919f808481717e7ea3fd3cba1838681dce735d6f2d95922d8369f564736f6c63430008040033",
  "linkReferences": {},
  "deployedLinkReferences": {}
}