{
  "_format": "hh-sol-artifact-1",
  "contractName": "EventChain",
  "sourceName": "contracts/EventChain.sol",
  "abi": [
    {
      "inputs": [],
      "stateMutability": "nonpayable",
      "type": "constructor"
    },
    {
      "anonymous": false,
      "inputs": [
        {
          "indexed": true,
          "internalType": "address",
          "name": "owner",
          "type": "address"
        },
        {
          "indexed": true,
          "internalType": "address",
          "name": "approved",
          "type": "address"
        },
        {
          "indexed": true,
          "internalType": "uint256",
          "name": "tokenId",
          "type": "uint256"
        }
      ],
      "name": "Approval",
      "type": "event"
    },
    {
      "anonymous": false,
      "inputs": [
        {
          "indexed": true,
          "internalType": "address",
          "name": "owner",
          "type": "address"
        },
        {
          "indexed": true,
          "internalType": "address",
          "name": "operator",
          "type": "address"
        },
        {
          "indexed": false,
          "internalType": "bool",
          "name": "approved",
          "type": "bool"
        }
      ],
      "name": "ApprovalForAll",
      "type": "event"
    },
    {
      "anonymous": false,
      "inputs": [
        {
          "indexed": false,
          "internalType": "uint256",
          "name": "_fromTokenId",
          "type": "uint256"
        },
        {
          "indexed": false,
          "internalType": "uint256",
          "name": "_toTokenId",
          "type": "uint256"
        }
      ],
      "name": "BatchMetadataUpdate",
      "type": "event"
    },
    {
      "anonymous": false,
      "inputs": [
        {
          "indexed": false,
          "internalType": "uint256",
          "name": "_tokenId",
          "type": "uint256"
        }
      ],
      "name": "MetadataUpdate",
      "type": "event"
    },
    {
      "anonymous": false,
      "inputs": [
        {
          "indexed": true,
          "internalType": "address",
          "name": "previousOwner",
          "type": "address"
        },
        {
          "indexed": true,
          "internalType": "address",
          "name": "newOwner",
          "type": "address"
        }
      ],
      "name": "OwnershipTransferred",
      "type": "event"
    },
    {
      "anonymous": false,
      "inputs": [
        {
          "indexed": true,
          "internalType": "address",
          "name": "from",
          "type": "address"
        },
        {
          "indexed": true,
          "internalType": "address",
          "name": "to",
          "type": "address"
        },
        {
          "indexed": true,
          "internalType": "uint256",
          "name": "tokenId",
          "type": "uint256"
        }
      ],
      "name": "Transfer",
      "type": "event"
    },
    {
      "inputs": [
        {
          "internalType": "address",
          "name": "to",
          "type": "address"
        },
        {
          "internalType": "uint256",
          "name": "tokenId",
          "type": "uint256"
        }
      ],
      "name": "approve",
      "outputs": [],
      "stateMutability": "nonpayable",
      "type": "function"
    },
    {
      "inputs": [
        {
          "internalType": "address",
          "name": "owner",
          "type": "address"
        }
      ],
      "name": "balanceOf",
      "outputs": [
        {
          "internalType": "uint256",
          "name": "",
          "type": "uint256"
        }
      ],
      "stateMutability": "view",
      "type": "function"
    },
    {
      "inputs": [
        {
          "internalType": "uint256",
          "name": "tokenId",
          "type": "uint256"
        }
      ],
      "name": "getApproved",
      "outputs": [
        {
          "internalType": "address",
          "name": "",
          "type": "address"
        }
      ],
      "stateMutability": "view",
      "type": "function"
    },
    {
      "inputs": [
        {
          "internalType": "address",
          "name": "owner",
          "type": "address"
        }
      ],
      "name": "getTicketsByOwner",
      "outputs": [
        {
          "internalType": "uint256[]",
          "name": "",
          "type": "uint256[]"
        }
      ],
      "stateMutability": "view",
      "type": "function"
    },
    {
      "inputs": [
        {
          "internalType": "address",
          "name": "owner",
          "type": "address"
        },
        {
          "internalType": "address",
          "name": "operator",
          "type": "address"
        }
      ],
      "name": "isApprovedForAll",
      "outputs": [
        {
          "internalType": "bool",
          "name": "",
          "type": "bool"
        }
      ],
      "stateMutability": "view",
      "type": "function"
    },
    {
      "inputs": [
        {
          "internalType": "address",
          "name": "attendee",
          "type": "address"
        },
        {
          "internalType": "string",
          "name": "metadataURI",
          "type": "string"
        }
      ],
      "name": "mintTicket",
      "outputs": [],
      "stateMutability": "nonpayable",
      "type": "function"
    },
    {
      "inputs": [],
      "name": "name",
      "outputs": [
        {
          "internalType": "string",
          "name": "",
          "type": "string"
        }
      ],
      "stateMutability": "view",
      "type": "function"
    },
    {
      "inputs": [],
      "name": "owner",
      "outputs": [
        {
          "internalType": "address",
          "name": "",
          "type": "address"
        }
      ],
      "stateMutability": "view",
      "type": "function"
    },
    {
      "inputs": [
        {
          "internalType": "uint256",
          "name": "tokenId",
          "type": "uint256"
        }
      ],
      "name": "ownerOf",
      "outputs": [
        {
          "internalType": "address",
          "name": "",
          "type": "address"
        }
      ],
      "stateMutability": "view",
      "type": "function"
    },
    {
      "inputs": [],
      "name": "renounceOwnership",
      "outputs": [],
      "stateMutability": "nonpayable",
      "type": "function"
    },
    {
      "inputs": [
        {
          "internalType": "address",
          "name": "from",
          "type": "address"
        },
        {
          "internalType": "address",
          "name": "to",
          "type": "address"
        },
        {
          "internalType": "uint256",
          "name": "tokenId",
          "type": "uint256"
        }
      ],
      "name": "safeTransferFrom",
      "outputs": [],
      "stateMutability": "nonpayable",
      "type": "function"
    },
    {
      "inputs": [
        {
          "internalType": "address",
          "name": "from",
          "type": "address"
        },
        {
          "internalType": "address",
          "name": "to",
          "type": "address"
        },
        {
          "internalType": "uint256",
          "name": "tokenId",
          "type": "uint256"
        },
        {
          "internalType": "bytes",
          "name": "data",
          "type": "bytes"
        }
      ],
      "name": "safeTransferFrom",
      "outputs": [],
      "stateMutability": "nonpayable",
      "type": "function"
    },
    {
      "inputs": [
        {
          "internalType": "address",
          "name": "operator",
          "type": "address"
        },
        {
          "internalType": "bool",
          "name": "approved",
          "type": "bool"
        }
      ],
      "name": "setApprovalForAll",
      "outputs": [],
      "stateMutability": "nonpayable",
      "type": "function"
    },
    {
      "inputs": [
        {
          "internalType": "bytes4",
          "name": "interfaceId",
          "type": "bytes4"
        }
      ],
      "name": "supportsInterface",
      "outputs": [
        {
          "internalType": "bool",
          "name": "",
          "type": "bool"
        }
      ],
      "stateMutability": "view",
      "type": "function"
    },
    {
      "inputs": [],
      "name": "symbol",
      "outputs": [
        {
          "internalType": "string",
          "name": "",
          "type": "string"
        }
      ],
      "stateMutability": "view",
      "type": "function"
    },
    {
      "inputs": [
        {
          "internalType": "uint256",
          "name": "",
          "type": "uint256"
        }
      ],
      "name": "tickets",
      "outputs": [
        {
          "internalType": "uint256",
          "name": "tokenId",
          "type": "uint256"
        },
        {
          "internalType": "bool",
          "name": "isVIP",
          "type": "bool"
        }
      ],
      "stateMutability": "view",
      "type": "function"
    },
    {
      "inputs": [
        {
          "internalType": "uint256",
          "name": "tokenId",
          "type": "uint256"
        }
      ],
      "name": "tokenURI",
      "outputs": [
        {
          "internalType": "string",
          "name": "",
          "type": "string"
        }
      ],
      "stateMutability": "view",
      "type": "function"
    },
    {
      "inputs": [
        {
          "internalType": "address",
          "name": "from",
          "type": "address"
        },
        {
          "internalType": "address",
          "name": "to",
          "type": "address"
        },
        {
          "internalType": "uint256",
          "name": "tokenId",
          "type": "uint256"
        }
      ],
      "name": "transferFrom",
      "outputs": [],
      "stateMutability": "nonpayable",
      "type": "function"
    },
    {
      "inputs": [
        {
          "internalType": "address",
          "name": "newOwner",
          "type": "address"
        }
      ],
      "name": "transferOwnership",
      "outputs": [],
      "stateMutability": "nonpayable",
      "type": "function"
    }
  ],
  "bytecode": "0x60806040523480156200001157600080fd5b506040518060400160405280600a81526020017f4576656e74436861696e000000000000000000000000000000000000000000008152506040518060400160405280600381526020017f4556540000000000000000000000000000000000000000000000000000000000815250816000908051906020019062000096929190620001a6565b508060019080519060200190620000af929190620001a6565b505050620000d2620000c6620000d860201b60201c565b620000e060201b60201c565b620002bb565b600033905090565b6000600760009054906101000a900473ffffffffffffffffffffffffffffffffffffffff16905081600760006101000a81548173ffffffffffffffffffffffffffffffffffffffff021916908373ffffffffffffffffffffffffffffffffffffffff1602179055508173ffffffffffffffffffffffffffffffffffffffff168173ffffffffffffffffffffffffffffffffffffffff167f8be0079c531659141344cd1fd0a4f28419497f9722a3daafe3b4186f6b6457e060405160405180910390a35050565b828054620001b49062000256565b90600052602060002090601f016020900481019282620001d8576000855562000224565b82601f10620001f357805160ff191683800117855562000224565b8280016001018555821562000224579182015b828111156200022357825182559160200191906001019062000206565b5b50905062000233919062000237565b5090565b5b808211156200025257600081600090555060010162000238565b5090565b600060028204905060018216806200026f57607f821691505b602082108114156200028657620002856200028c565b5b50919050565b7f4e487b7100000000000000000000000000000000000000000000000000000000600052602260045260246000fd5b6130b380620002cb6000396000f3fe608060405234801561001057600080fd5b50600436106101215760003560e01c806367aa23e2116100ad578063a22cb46511610071578063a22cb4651461031b578063b88d4fde14610337578063c87b56dd14610353578063e985e9c514610383578063f2fde38b146103b357610121565b806367aa23e21461027557806370a08231146102a5578063715018a6146102d55780638da5cb5b146102df57806395d89b41146102fd57610121565b806323b872dd116100f457806323b872dd146101c057806342842e0e146101dc57806350b44712146101f85780635388842c146102295780636352211e1461024557610121565b806301ffc9a71461012657806306fdde0314610156578063081812fc14610174578063095ea7b3146101a4575b600080fd5b610140600480360381019061013b91906122fa565b6103cf565b60405161014d9190612761565b60405180910390f35b61015e610430565b60405161016b919061277c565b60405180910390f35b61018e6004803603810190610189919061234c565b6104c2565b60405161019b91906126d8565b60405180910390f35b6101be60048036038101906101b991906122be565b610508565b005b6101da60048036038101906101d59190612164565b610620565b005b6101f660048036038101906101f19190612164565b610680565b005b610212600480360381019061020d919061234c565b6106a0565b604051610220929190612979565b60405180910390f35b610243600480360381019061023e919061226a565b6106d1565b005b61025f600480360381019061025a919061234c565b6107db565b60405161026c91906126d8565b60405180910390f35b61028f600480360381019061028a91906120ff565b610862565b60405161029c919061273f565b60405180910390f35b6102bf60048036038101906102ba91906120ff565b6108f9565b6040516102cc919061295e565b60405180910390f35b6102dd6109b1565b005b6102e76109c5565b6040516102f491906126d8565b60405180910390f35b6103056109ef565b604051610312919061277c565b60405180910390f35b6103356004803603810190610330919061222e565b610a81565b005b610351600480360381019061034c91906121b3565b610a97565b005b61036d6004803603810190610368919061234c565b610af9565b60405161037a919061277c565b60405180910390f35b61039d60048036038101906103989190612128565b610c0c565b6040516103aa9190612761565b60405180910390f35b6103cd60048036038101906103c891906120ff565b610ca0565b005b6000634906490660e01b7bffffffffffffffffffffffffffffffffffffffffffffffffffffffff1916827bffffffffffffffffffffffffffffffffffffffffffffffffffffffff19161480610429575061042882610d24565b5b9050919050565b60606000805461043f90612b5b565b80601f016020809104026020016040519081016040528092919081815260200182805461046b90612b5b565b80156104b85780601f1061048d576101008083540402835291602001916104b8565b820191906000526020600020905b81548152906001019060200180831161049b57829003601f168201915b5050505050905090565b60006104cd82610e06565b6004600083815260200190815260200160002060009054906101000a900473ffffffffffffffffffffffffffffffffffffffff169050919050565b6000610513826107db565b90508073ffffffffffffffffffffffffffffffffffffffff168373ffffffffffffffffffffffffffffffffffffffff161415610584576040517f08c379a000000000000000000000000000000000000000000000000000000000815260040161057b9061291e565b60405180910390fd5b8073ffffffffffffffffffffffffffffffffffffffff166105a3610e51565b73ffffffffffffffffffffffffffffffffffffffff1614806105d257506105d1816105cc610e51565b610c0c565b5b610611576040517f08c379a00000000000000000000000000000000000000000000000000000000081526004016106089061293e565b60405180910390fd5b61061b8383610e59565b505050565b61063161062b610e51565b82610f12565b610670576040517f08c379a00000000000000000000000000000000000000000000000000000000081526004016106679061279e565b60405180910390fd5b61067b838383610fa7565b505050565b61069b83838360405180602001604052806000815250610a97565b505050565b60096020528060005260406000206000915090508060000154908060010160009054906101000a900460ff16905082565b6106d96112a1565b6106e3600861131f565b60006106ef6008611335565b90506000806014836107019190612bbe565b1490506040518060400160405280838152602001821515815250600960008481526020019081526020016000206000820151816000015560208201518160010160006101000a81548160ff0219169083151502179055509050506107658483611343565b61076f8284611561565b600a60008573ffffffffffffffffffffffffffffffffffffffff1673ffffffffffffffffffffffffffffffffffffffff16815260200190815260200160002082908060018154018082558091505060019003906000526020600020016000909190919091505550505050565b6000806107e78361160c565b9050600073ffffffffffffffffffffffffffffffffffffffff168173ffffffffffffffffffffffffffffffffffffffff161415610859576040517f08c379a0000000000000000000000000000000000000000000000000000000008152600401610850906128fe565b60405180910390fd5b80915050919050565b6060600a60008373ffffffffffffffffffffffffffffffffffffffff1673ffffffffffffffffffffffffffffffffffffffff1681526020019081526020016000208054806020026020016040519081016040528092919081815260200182805480156108ed57602002820191906000526020600020905b8154815260200190600101908083116108d9575b50505050509050919050565b60008073ffffffffffffffffffffffffffffffffffffffff168273ffffffffffffffffffffffffffffffffffffffff16141561096a576040517f08c379a00000000000000000000000000000000000000000000000000000000081526004016109619061287e565b60405180910390fd5b600360008373ffffffffffffffffffffffffffffffffffffffff1673ffffffffffffffffffffffffffffffffffffffff168152602001908152602001600020549050919050565b6109b96112a1565b6109c36000611649565b565b6000600760009054906101000a900473ffffffffffffffffffffffffffffffffffffffff16905090565b6060600180546109fe90612b5b565b80601f0160208091040260200160405190810160405280929190818152602001828054610a2a90612b5b565b8015610a775780601f10610a4c57610100808354040283529160200191610a77565b820191906000526020600020905b815481529060010190602001808311610a5a57829003601f168201915b5050505050905090565b610a93610a8c610e51565b838361170f565b5050565b610aa8610aa2610e51565b83610f12565b610ae7576040517f08c379a0000000000000000000000000000000000000000000000000000000008152600401610ade9061279e565b60405180910390fd5b610af38484848461187c565b50505050565b6060610b0482610e06565b6000600660008481526020019081526020016000208054610b2490612b5b565b80601f0160208091040260200160405190810160405280929190818152602001828054610b5090612b5b565b8015610b9d5780601f10610b7257610100808354040283529160200191610b9d565b820191906000526020600020905b815481529060010190602001808311610b8057829003601f168201915b505050505090506000610bae6118d8565b9050600081511415610bc4578192505050610c07565b600082511115610bf9578082604051602001610be19291906126b4565b60405160208183030381529060405292505050610c07565b610c02846118ef565b925050505b919050565b6000600560008473ffffffffffffffffffffffffffffffffffffffff1673ffffffffffffffffffffffffffffffffffffffff16815260200190815260200160002060008373ffffffffffffffffffffffffffffffffffffffff1673ffffffffffffffffffffffffffffffffffffffff16815260200190815260200160002060009054906101000a900460ff16905092915050565b610ca86112a1565b600073ffffffffffffffffffffffffffffffffffffffff168173ffffffffffffffffffffffffffffffffffffffff161415610d18576040517f08c379a0000000000000000000000000000000000000000000000000000000008152600401610d0f906127de565b60405180910390fd5b610d2181611649565b50565b60007f80ac58cd000000000000000000000000000000000000000000000000000000007bffffffffffffffffffffffffffffffffffffffffffffffffffffffff1916827bffffffffffffffffffffffffffffffffffffffffffffffffffffffff19161480610def57507f5b5e139f000000000000000000000000000000000000000000000000000000007bffffffffffffffffffffffffffffffffffffffffffffffffffffffff1916827bffffffffffffffffffffffffffffffffffffffffffffffffffffffff1916145b80610dff5750610dfe82611957565b5b9050919050565b610e0f816119c1565b610e4e576040517f08c379a0000000000000000000000000000000000000000000000000000000008152600401610e45906128fe565b60405180910390fd5b50565b600033905090565b816004600083815260200190815260200160002060006101000a81548173ffffffffffffffffffffffffffffffffffffffff021916908373ffffffffffffffffffffffffffffffffffffffff160217905550808273ffffffffffffffffffffffffffffffffffffffff16610ecc836107db565b73ffffffffffffffffffffffffffffffffffffffff167f8c5be1e5ebec7d5bd14f71427d1e84f3dd0314c0f7b2291e5b200ac8c7c3b92560405160405180910390a45050565b600080610f1e836107db565b90508073ffffffffffffffffffffffffffffffffffffffff168473ffffffffffffffffffffffffffffffffffffffff161480610f605750610f5f8185610c0c565b5b80610f9e57508373ffffffffffffffffffffffffffffffffffffffff16610f86846104c2565b73ffffffffffffffffffffffffffffffffffffffff16145b91505092915050565b8273ffffffffffffffffffffffffffffffffffffffff16610fc7826107db565b73ffffffffffffffffffffffffffffffffffffffff161461101d576040517f08c379a0000000000000000000000000000000000000000000000000000000008152600401611014906127fe565b60405180910390fd5b600073ffffffffffffffffffffffffffffffffffffffff168273ffffffffffffffffffffffffffffffffffffffff16141561108d576040517f08c379a00000000000000000000000000000000000000000000000000000000081526004016110849061283e565b60405180910390fd5b61109a8383836001611a02565b8273ffffffffffffffffffffffffffffffffffffffff166110ba826107db565b73ffffffffffffffffffffffffffffffffffffffff1614611110576040517f08c379a0000000000000000000000000000000000000000000000000000000008152600401611107906127fe565b60405180910390fd5b6004600082815260200190815260200160002060006101000a81549073ffffffffffffffffffffffffffffffffffffffff02191690556001600360008573ffffffffffffffffffffffffffffffffffffffff1673ffffffffffffffffffffffffffffffffffffffff168152602001908152602001600020600082825403925050819055506001600360008473ffffffffffffffffffffffffffffffffffffffff1673ffffffffffffffffffffffffffffffffffffffff16815260200190815260200160002060008282540192505081905550816002600083815260200190815260200160002060006101000a81548173ffffffffffffffffffffffffffffffffffffffff021916908373ffffffffffffffffffffffffffffffffffffffff160217905550808273ffffffffffffffffffffffffffffffffffffffff168473ffffffffffffffffffffffffffffffffffffffff167fddf252ad1be2c89b69c2b068fc378daa952ba7f163c4a11628f55a4df523b3ef60405160405180910390a461129c8383836001611a08565b505050565b6112a9610e51565b73ffffffffffffffffffffffffffffffffffffffff166112c76109c5565b73ffffffffffffffffffffffffffffffffffffffff161461131d576040517f08c379a0000000000000000000000000000000000000000000000000000000008152600401611314906128de565b60405180910390fd5b565b6001816000016000828254019250508190555050565b600081600001549050919050565b600073ffffffffffffffffffffffffffffffffffffffff168273ffffffffffffffffffffffffffffffffffffffff1614156113b3576040517f08c379a00000000000000000000000000000000000000000000000000000000081526004016113aa906128be565b60405180910390fd5b6113bc816119c1565b156113fc576040517f08c379a00000000000000000000000000000000000000000000000000000000081526004016113f39061281e565b60405180910390fd5b61140a600083836001611a02565b611413816119c1565b15611453576040517f08c379a000000000000000000000000000000000000000000000000000000000815260040161144a9061281e565b60405180910390fd5b6001600360008473ffffffffffffffffffffffffffffffffffffffff1673ffffffffffffffffffffffffffffffffffffffff16815260200190815260200160002060008282540192505081905550816002600083815260200190815260200160002060006101000a81548173ffffffffffffffffffffffffffffffffffffffff021916908373ffffffffffffffffffffffffffffffffffffffff160217905550808273ffffffffffffffffffffffffffffffffffffffff16600073ffffffffffffffffffffffffffffffffffffffff167fddf252ad1be2c89b69c2b068fc378daa952ba7f163c4a11628f55a4df523b3ef60405160405180910390a461155d600083836001611a08565b5050565b61156a826119c1565b6115a9576040517f08c379a00000000000000000000000000000000000000000000000000000000081526004016115a09061289e565b60405180910390fd5b806006600084815260200190815260200160002090805190602001906115d0929190611f23565b507ff8e1a15aba9398e019f0b49df1a4fde98ee17ae345cb5f6b5e2c27f5033e8ce782604051611600919061295e565b60405180910390a15050565b60006002600083815260200190815260200160002060009054906101000a900473ffffffffffffffffffffffffffffffffffffffff169050919050565b6000600760009054906101000a900473ffffffffffffffffffffffffffffffffffffffff16905081600760006101000a81548173ffffffffffffffffffffffffffffffffffffffff021916908373ffffffffffffffffffffffffffffffffffffffff1602179055508173ffffffffffffffffffffffffffffffffffffffff168173ffffffffffffffffffffffffffffffffffffffff167f8be0079c531659141344cd1fd0a4f28419497f9722a3daafe3b4186f6b6457e060405160405180910390a35050565b8173ffffffffffffffffffffffffffffffffffffffff168373ffffffffffffffffffffffffffffffffffffffff16141561177e576040517f08c379a00000000000000000000000000000000000000000000000000000000081526004016117759061285e565b60405180910390fd5b80600560008573ffffffffffffffffffffffffffffffffffffffff1673ffffffffffffffffffffffffffffffffffffffff16815260200190815260200160002060008473ffffffffffffffffffffffffffffffffffffffff1673ffffffffffffffffffffffffffffffffffffffff16815260200190815260200160002060006101000a81548160ff0219169083151502179055508173ffffffffffffffffffffffffffffffffffffffff168373ffffffffffffffffffffffffffffffffffffffff167f17307eab39ab6107e8899845ad3d59bd9653f200f220920489ca2b5937696c318360405161186f9190612761565b60405180910390a3505050565b611887848484610fa7565b61189384848484611a0e565b6118d2576040517f08c379a00000000000000000000000000000000000000000000000000000000081526004016118c9906127be565b60405180910390fd5b50505050565b606060405180602001604052806000815250905090565b60606118fa82610e06565b60006119046118d8565b90506000815111611924576040518060200160405280600081525061194f565b8061192e84611ba5565b60405160200161193f9291906126b4565b6040516020818303038152906040525b915050919050565b60007f01ffc9a7000000000000000000000000000000000000000000000000000000007bffffffffffffffffffffffffffffffffffffffffffffffffffffffff1916827bffffffffffffffffffffffffffffffffffffffffffffffffffffffff1916149050919050565b60008073ffffffffffffffffffffffffffffffffffffffff166119e38361160c565b73ffffffffffffffffffffffffffffffffffffffff1614159050919050565b50505050565b50505050565b6000611a2f8473ffffffffffffffffffffffffffffffffffffffff16611cc9565b15611b98578373ffffffffffffffffffffffffffffffffffffffff1663150b7a02611a58610e51565b8786866040518563ffffffff1660e01b8152600401611a7a94939291906126f3565b602060405180830381600087803b158015611a9457600080fd5b505af1925050508015611ac557506040513d601f19601f82011682018060405250810190611ac29190612323565b60015b611b48573d8060008114611af5576040519150601f19603f3d011682016040523d82523d6000602084013e611afa565b606091505b50600081511415611b40576040517f08c379a0000000000000000000000000000000000000000000000000000000008152600401611b37906127be565b60405180910390fd5b805181602001fd5b63150b7a0260e01b7bffffffffffffffffffffffffffffffffffffffffffffffffffffffff1916817bffffffffffffffffffffffffffffffffffffffffffffffffffffffff191614915050611b9d565b600190505b949350505050565b606060006001611bb484611cec565b01905060008167ffffffffffffffff811115611bf9577f4e487b7100000000000000000000000000000000000000000000000000000000600052604160045260246000fd5b6040519080825280601f01601f191660200182016040528015611c2b5781602001600182028036833780820191505090505b509050600082602001820190505b600115611cbe578080600190039150507f3031323334353637383961626364656600000000000000000000000000000000600a86061a8153600a8581611ca8577f4e487b7100000000000000000000000000000000000000000000000000000000600052601260045260246000fd5b0494506000851415611cb957611cbe565b611c39565b819350505050919050565b6000808273ffffffffffffffffffffffffffffffffffffffff163b119050919050565b600080600090507a184f03e93ff9f4daa797ed6e38ed64bf6a1f0100000000000000008310611d70577a184f03e93ff9f4daa797ed6e38ed64bf6a1f0100000000000000008381611d66577f4e487b7100000000000000000000000000000000000000000000000000000000600052601260045260246000fd5b0492506040810190505b6d04ee2d6d415b85acef81000000008310611dd3576d04ee2d6d415b85acef81000000008381611dc9577f4e487b7100000000000000000000000000000000000000000000000000000000600052601260045260246000fd5b0492506020810190505b662386f26fc100008310611e2857662386f26fc100008381611e1e577f4e487b7100000000000000000000000000000000000000000000000000000000600052601260045260246000fd5b0492506010810190505b6305f5e1008310611e77576305f5e1008381611e6d577f4e487b7100000000000000000000000000000000000000000000000000000000600052601260045260246000fd5b0492506008810190505b6127108310611ec2576127108381611eb8577f4e487b7100000000000000000000000000000000000000000000000000000000600052601260045260246000fd5b0492506004810190505b60648310611f0b5760648381611f01577f4e487b7100000000000000000000000000000000000000000000000000000000600052601260045260246000fd5b0492506002810190505b600a8310611f1a576001810190505b80915050919050565b828054611f2f90612b5b565b90600052602060002090601f016020900481019282611f515760008555611f98565b82601f10611f6a57805160ff1916838001178555611f98565b82800160010185558215611f98579182015b82811115611f97578251825591602001919060010190611f7c565b5b509050611fa59190611fa9565b5090565b5b80821115611fc2576000816000905550600101611faa565b5090565b6000611fd9611fd4846129c7565b6129a2565b905082815260208101848484011115611ff157600080fd5b611ffc848285612b19565b509392505050565b6000612017612012846129f8565b6129a2565b90508281526020810184848401111561202f57600080fd5b61203a848285612b19565b509392505050565b60008135905061205181613021565b92915050565b60008135905061206681613038565b92915050565b60008135905061207b8161304f565b92915050565b6000815190506120908161304f565b92915050565b600082601f8301126120a757600080fd5b81356120b7848260208601611fc6565b91505092915050565b600082601f8301126120d157600080fd5b81356120e1848260208601612004565b91505092915050565b6000813590506120f981613066565b92915050565b60006020828403121561211157600080fd5b600061211f84828501612042565b91505092915050565b6000806040838503121561213b57600080fd5b600061214985828601612042565b925050602061215a85828601612042565b9150509250929050565b60008060006060848603121561217957600080fd5b600061218786828701612042565b935050602061219886828701612042565b92505060406121a9868287016120ea565b9150509250925092565b600080600080608085870312156121c957600080fd5b60006121d787828801612042565b94505060206121e887828801612042565b93505060406121f9878288016120ea565b925050606085013567ffffffffffffffff81111561221657600080fd5b61222287828801612096565b91505092959194509250565b6000806040838503121561224157600080fd5b600061224f85828601612042565b925050602061226085828601612057565b9150509250929050565b6000806040838503121561227d57600080fd5b600061228b85828601612042565b925050602083013567ffffffffffffffff8111156122a857600080fd5b6122b4858286016120c0565b9150509250929050565b600080604083850312156122d157600080fd5b60006122df85828601612042565b92505060206122f0858286016120ea565b9150509250929050565b60006020828403121561230c57600080fd5b600061231a8482850161206c565b91505092915050565b60006020828403121561233557600080fd5b600061234384828501612081565b91505092915050565b60006020828403121561235e57600080fd5b600061236c848285016120ea565b91505092915050565b60006123818383612696565b60208301905092915050565b61239681612aa5565b82525050565b60006123a782612a39565b6123b18185612a67565b93506123bc83612a29565b8060005b838110156123ed5781516123d48882612375565b97506123df83612a5a565b9250506001810190506123c0565b5085935050505092915050565b61240381612ab7565b82525050565b600061241482612a44565b61241e8185612a78565b935061242e818560208601612b28565b61243781612c7c565b840191505092915050565b600061244d82612a4f565b6124578185612a89565b9350612467818560208601612b28565b61247081612c7c565b840191505092915050565b600061248682612a4f565b6124908185612a9a565b93506124a0818560208601612b28565b80840191505092915050565b60006124b9602d83612a89565b91506124c482612c8d565b604082019050919050565b60006124dc603283612a89565b91506124e782612cdc565b604082019050919050565b60006124ff602683612a89565b915061250a82612d2b565b604082019050919050565b6000612522602583612a89565b915061252d82612d7a565b604082019050919050565b6000612545601c83612a89565b915061255082612dc9565b602082019050919050565b6000612568602483612a89565b915061257382612df2565b604082019050919050565b600061258b601983612a89565b915061259682612e41565b602082019050919050565b60006125ae602983612a89565b91506125b982612e6a565b604082019050919050565b60006125d1602e83612a89565b91506125dc82612eb9565b604082019050919050565b60006125f4602083612a89565b91506125ff82612f08565b602082019050919050565b6000612617602083612a89565b915061262282612f31565b602082019050919050565b600061263a601883612a89565b915061264582612f5a565b602082019050919050565b600061265d602183612a89565b915061266882612f83565b604082019050919050565b6000612680603d83612a89565b915061268b82612fd2565b604082019050919050565b61269f81612b0f565b82525050565b6126ae81612b0f565b82525050565b60006126c0828561247b565b91506126cc828461247b565b91508190509392505050565b60006020820190506126ed600083018461238d565b92915050565b6000608082019050612708600083018761238d565b612715602083018661238d565b61272260408301856126a5565b81810360608301526127348184612409565b905095945050505050565b60006020820190508181036000830152612759818461239c565b905092915050565b600060208201905061277660008301846123fa565b92915050565b600060208201905081810360008301526127968184612442565b905092915050565b600060208201905081810360008301526127b7816124ac565b9050919050565b600060208201905081810360008301526127d7816124cf565b9050919050565b600060208201905081810360008301526127f7816124f2565b9050919050565b6000602082019050818103600083015261281781612515565b9050919050565b6000602082019050818103600083015261283781612538565b9050919050565b600060208201905081810360008301526128578161255b565b9050919050565b600060208201905081810360008301526128778161257e565b9050919050565b60006020820190508181036000830152612897816125a1565b9050919050565b600060208201905081810360008301526128b7816125c4565b9050919050565b600060208201905081810360008301526128d7816125e7565b9050919050565b600060208201905081810360008301526128f78161260a565b9050919050565b600060208201905081810360008301526129178161262d565b9050919050565b6000602082019050818103600083015261293781612650565b9050919050565b6000602082019050818103600083015261295781612673565b9050919050565b600060208201905061297360008301846126a5565b92915050565b600060408201905061298e60008301856126a5565b61299b60208301846123fa565b9392505050565b60006129ac6129bd565b90506129b88282612b8d565b919050565b6000604051905090565b600067ffffffffffffffff8211156129e2576129e1612c4d565b5b6129eb82612c7c565b9050602081019050919050565b600067ffffffffffffffff821115612a1357612a12612c4d565b5b612a1c82612c7c565b9050602081019050919050565b6000819050602082019050919050565b600081519050919050565b600081519050919050565b600081519050919050565b6000602082019050919050565b600082825260208201905092915050565b600082825260208201905092915050565b600082825260208201905092915050565b600081905092915050565b6000612ab082612aef565b9050919050565b60008115159050919050565b60007fffffffff0000000000000000000000000000000000000000000000000000000082169050919050565b600073ffffffffffffffffffffffffffffffffffffffff82169050919050565b6000819050919050565b82818337600083830152505050565b60005b83811015612b46578082015181840152602081019050612b2b565b83811115612b55576000848401525b50505050565b60006002820490506001821680612b7357607f821691505b60208210811415612b8757612b86612c1e565b5b50919050565b612b9682612c7c565b810181811067ffffffffffffffff82111715612bb557612bb4612c4d565b5b80604052505050565b6000612bc982612b0f565b9150612bd483612b0f565b925082612be457612be3612bef565b5b828206905092915050565b7f4e487b7100000000000000000000000000000000000000000000000000000000600052601260045260246000fd5b7f4e487b7100000000000000000000000000000000000000000000000000000000600052602260045260246000fd5b7f4e487b7100000000000000000000000000000000000000000000000000000000600052604160045260246000fd5b6000601f19601f8301169050919050565b7f4552433732313a2063616c6c6572206973206e6f7420746f6b656e206f776e6560008201527f72206f7220617070726f76656400000000000000000000000000000000000000602082015250565b7f4552433732313a207472616e7366657220746f206e6f6e20455243373231526560008201527f63656976657220696d706c656d656e7465720000000000000000000000000000602082015250565b7f4f776e61626c653a206e6577206f776e657220697320746865207a65726f206160008201527f6464726573730000000000000000000000000000000000000000000000000000602082015250565b7f4552433732313a207472616e736665722066726f6d20696e636f72726563742060008201527f6f776e6572000000000000000000000000000000000000000000000000000000602082015250565b7f4552433732313a20746f6b656e20616c7265616479206d696e74656400000000600082015250565b7f4552433732313a207472616e7366657220746f20746865207a65726f2061646460008201527f7265737300000000000000000000000000000000000000000000000000000000602082015250565b7f4552433732313a20617070726f766520746f2063616c6c657200000000000000600082015250565b7f4552433732313a2061646472657373207a65726f206973206e6f74206120766160008201527f6c6964206f776e65720000000000000000000000000000000000000000000000602082015250565b7f45524337323155524953746f726167653a2055524920736574206f66206e6f6e60008201527f6578697374656e7420746f6b656e000000000000000000000000000000000000602082015250565b7f4552433732313a206d696e7420746f20746865207a65726f2061646472657373600082015250565b7f4f776e61626c653a2063616c6c6572206973206e6f7420746865206f776e6572600082015250565b7f4552433732313a20696e76616c696420746f6b656e2049440000000000000000600082015250565b7f4552433732313a20617070726f76616c20746f2063757272656e74206f776e6560008201527f7200000000000000000000000000000000000000000000000000000000000000602082015250565b7f4552433732313a20617070726f76652063616c6c6572206973206e6f7420746f60008201527f6b656e206f776e6572206f7220617070726f76656420666f7220616c6c000000602082015250565b61302a81612aa5565b811461303557600080fd5b50565b61304181612ab7565b811461304c57600080fd5b50565b61305881612ac3565b811461306357600080fd5b50565b61306f81612b0f565b811461307a57600080fd5b5056fea2646970667358221220cb50b400ade08f1b5aa5404e53a64081f787be5168d857e118b2e188d99a5b8564736f6c63430008040033",
  "linkReferences": {},
  "deployedLinkReferences": {}
}